{
  "contractName": "TrueswapRouter02",
  "abi": [
    {
      "inputs": [
        {
          "internalType": "address",
          "name": "_factory",
          "type": "address"
        },
        {
          "internalType": "address",
          "name": "_WTRX",
          "type": "address"
        }
      ],
      "stateMutability": "nonpayable",
      "type": "constructor"
    },
    {
      "stateMutability": "payable",
      "type": "fallback"
    },
    {
      "inputs": [],
      "name": "WTRX",
      "outputs": [
        {
          "internalType": "address",
          "name": "",
          "type": "address"
        }
      ],
      "stateMutability": "view",
      "type": "function"
    },
    {
      "inputs": [],
      "name": "factory",
      "outputs": [
        {
          "internalType": "address",
          "name": "",
          "type": "address"
        }
      ],
      "stateMutability": "view",
      "type": "function"
    },
    {
      "inputs": [
        {
          "internalType": "address",
          "name": "tokenA",
          "type": "address"
        },
        {
          "internalType": "address",
          "name": "tokenB",
          "type": "address"
        },
        {
          "internalType": "uint256",
          "name": "amountADesired",
          "type": "uint256"
        },
        {
          "internalType": "uint256",
          "name": "amountBDesired",
          "type": "uint256"
        },
        {
          "internalType": "uint256",
          "name": "amountAMin",
          "type": "uint256"
        },
        {
          "internalType": "uint256",
          "name": "amountBMin",
          "type": "uint256"
        },
        {
          "internalType": "address",
          "name": "to",
          "type": "address"
        },
        {
          "internalType": "uint256",
          "name": "deadline",
          "type": "uint256"
        }
      ],
      "name": "addLiquidity",
      "outputs": [
        {
          "internalType": "uint256",
          "name": "amountA",
          "type": "uint256"
        },
        {
          "internalType": "uint256",
          "name": "amountB",
          "type": "uint256"
        },
        {
          "internalType": "uint256",
          "name": "liquidity",
          "type": "uint256"
        }
      ],
      "stateMutability": "nonpayable",
      "type": "function"
    },
    {
      "inputs": [
        {
          "internalType": "address",
          "name": "token",
          "type": "address"
        },
        {
          "internalType": "uint256",
          "name": "amountTokenDesired",
          "type": "uint256"
        },
        {
          "internalType": "uint256",
          "name": "amountTokenMin",
          "type": "uint256"
        },
        {
          "internalType": "uint256",
          "name": "amountTRXMin",
          "type": "uint256"
        },
        {
          "internalType": "address",
          "name": "to",
          "type": "address"
        },
        {
          "internalType": "uint256",
          "name": "deadline",
          "type": "uint256"
        }
      ],
      "name": "addLiquidityTRX",
      "outputs": [
        {
          "internalType": "uint256",
          "name": "amountToken",
          "type": "uint256"
        },
        {
          "internalType": "uint256",
          "name": "amountTRX",
          "type": "uint256"
        },
        {
          "internalType": "uint256",
          "name": "liquidity",
          "type": "uint256"
        }
      ],
      "stateMutability": "payable",
      "type": "function"
    },
    {
      "inputs": [
        {
          "internalType": "address",
          "name": "tokenA",
          "type": "address"
        },
        {
          "internalType": "address",
          "name": "tokenB",
          "type": "address"
        },
        {
          "internalType": "uint256",
          "name": "liquidity",
          "type": "uint256"
        },
        {
          "internalType": "uint256",
          "name": "amountAMin",
          "type": "uint256"
        },
        {
          "internalType": "uint256",
          "name": "amountBMin",
          "type": "uint256"
        },
        {
          "internalType": "address",
          "name": "to",
          "type": "address"
        },
        {
          "internalType": "uint256",
          "name": "deadline",
          "type": "uint256"
        }
      ],
      "name": "removeLiquidity",
      "outputs": [
        {
          "internalType": "uint256",
          "name": "amountA",
          "type": "uint256"
        },
        {
          "internalType": "uint256",
          "name": "amountB",
          "type": "uint256"
        }
      ],
      "stateMutability": "nonpayable",
      "type": "function"
    },
    {
      "inputs": [
        {
          "internalType": "address",
          "name": "token",
          "type": "address"
        },
        {
          "internalType": "uint256",
          "name": "liquidity",
          "type": "uint256"
        },
        {
          "internalType": "uint256",
          "name": "amountTokenMin",
          "type": "uint256"
        },
        {
          "internalType": "uint256",
          "name": "amountTRXMin",
          "type": "uint256"
        },
        {
          "internalType": "address",
          "name": "to",
          "type": "address"
        },
        {
          "internalType": "uint256",
          "name": "deadline",
          "type": "uint256"
        }
      ],
      "name": "removeLiquidityTRX",
      "outputs": [
        {
          "internalType": "uint256",
          "name": "amountToken",
          "type": "uint256"
        },
        {
          "internalType": "uint256",
          "name": "amountTRX",
          "type": "uint256"
        }
      ],
      "stateMutability": "nonpayable",
      "type": "function"
    },
    {
      "inputs": [
        {
          "internalType": "address",
          "name": "tokenA",
          "type": "address"
        },
        {
          "internalType": "address",
          "name": "tokenB",
          "type": "address"
        },
        {
          "internalType": "uint256",
          "name": "liquidity",
          "type": "uint256"
        },
        {
          "internalType": "uint256",
          "name": "amountAMin",
          "type": "uint256"
        },
        {
          "internalType": "uint256",
          "name": "amountBMin",
          "type": "uint256"
        },
        {
          "internalType": "address",
          "name": "to",
          "type": "address"
        },
        {
          "internalType": "uint256",
          "name": "deadline",
          "type": "uint256"
        },
        {
          "internalType": "bool",
          "name": "approveMax",
          "type": "bool"
        },
        {
          "internalType": "uint8",
          "name": "v",
          "type": "uint8"
        },
        {
          "internalType": "bytes32",
          "name": "r",
          "type": "bytes32"
        },
        {
          "internalType": "bytes32",
          "name": "s",
          "type": "bytes32"
        }
      ],
      "name": "removeLiquidityWithPermit",
      "outputs": [
        {
          "internalType": "uint256",
          "name": "amountA",
          "type": "uint256"
        },
        {
          "internalType": "uint256",
          "name": "amountB",
          "type": "uint256"
        }
      ],
      "stateMutability": "nonpayable",
      "type": "function"
    },
    {
      "inputs": [
        {
          "internalType": "address",
          "name": "token",
          "type": "address"
        },
        {
          "internalType": "uint256",
          "name": "liquidity",
          "type": "uint256"
        },
        {
          "internalType": "uint256",
          "name": "amountTokenMin",
          "type": "uint256"
        },
        {
          "internalType": "uint256",
          "name": "amountTRXMin",
          "type": "uint256"
        },
        {
          "internalType": "address",
          "name": "to",
          "type": "address"
        },
        {
          "internalType": "uint256",
          "name": "deadline",
          "type": "uint256"
        },
        {
          "internalType": "bool",
          "name": "approveMax",
          "type": "bool"
        },
        {
          "internalType": "uint8",
          "name": "v",
          "type": "uint8"
        },
        {
          "internalType": "bytes32",
          "name": "r",
          "type": "bytes32"
        },
        {
          "internalType": "bytes32",
          "name": "s",
          "type": "bytes32"
        }
      ],
      "name": "removeLiquidityTRXWithPermit",
      "outputs": [
        {
          "internalType": "uint256",
          "name": "amountToken",
          "type": "uint256"
        },
        {
          "internalType": "uint256",
          "name": "amountTRX",
          "type": "uint256"
        }
      ],
      "stateMutability": "nonpayable",
      "type": "function"
    },
    {
      "inputs": [
        {
          "internalType": "address",
          "name": "token",
          "type": "address"
        },
        {
          "internalType": "uint256",
          "name": "liquidity",
          "type": "uint256"
        },
        {
          "internalType": "uint256",
          "name": "amountTokenMin",
          "type": "uint256"
        },
        {
          "internalType": "uint256",
          "name": "amountTRXMin",
          "type": "uint256"
        },
        {
          "internalType": "address",
          "name": "to",
          "type": "address"
        },
        {
          "internalType": "uint256",
          "name": "deadline",
          "type": "uint256"
        }
      ],
      "name": "removeLiquidityTRXSupportingFeeOnTransferTokens",
      "outputs": [
        {
          "internalType": "uint256",
          "name": "amountTRX",
          "type": "uint256"
        }
      ],
      "stateMutability": "nonpayable",
      "type": "function"
    },
    {
      "inputs": [
        {
          "internalType": "address",
          "name": "token",
          "type": "address"
        },
        {
          "internalType": "uint256",
          "name": "liquidity",
          "type": "uint256"
        },
        {
          "internalType": "uint256",
          "name": "amountTokenMin",
          "type": "uint256"
        },
        {
          "internalType": "uint256",
          "name": "amountTRXMin",
          "type": "uint256"
        },
        {
          "internalType": "address",
          "name": "to",
          "type": "address"
        },
        {
          "internalType": "uint256",
          "name": "deadline",
          "type": "uint256"
        },
        {
          "internalType": "bool",
          "name": "approveMax",
          "type": "bool"
        },
        {
          "internalType": "uint8",
          "name": "v",
          "type": "uint8"
        },
        {
          "internalType": "bytes32",
          "name": "r",
          "type": "bytes32"
        },
        {
          "internalType": "bytes32",
          "name": "s",
          "type": "bytes32"
        }
      ],
      "name": "removeLiquidityTRXWithPermitSupportingFeeOnTransferTokens",
      "outputs": [
        {
          "internalType": "uint256",
          "name": "amountTRX",
          "type": "uint256"
        }
      ],
      "stateMutability": "nonpayable",
      "type": "function"
    },
    {
      "inputs": [
        {
          "internalType": "uint256",
          "name": "amountIn",
          "type": "uint256"
        },
        {
          "internalType": "uint256",
          "name": "amountOutMin",
          "type": "uint256"
        },
        {
          "internalType": "address[]",
          "name": "path",
          "type": "address[]"
        },
        {
          "internalType": "address",
          "name": "to",
          "type": "address"
        },
        {
          "internalType": "uint256",
          "name": "deadline",
          "type": "uint256"
        }
      ],
      "name": "swapExactTokensForTokens",
      "outputs": [
        {
          "internalType": "uint256[]",
          "name": "amounts",
          "type": "uint256[]"
        }
      ],
      "stateMutability": "nonpayable",
      "type": "function"
    },
    {
      "inputs": [
        {
          "internalType": "uint256",
          "name": "amountOut",
          "type": "uint256"
        },
        {
          "internalType": "uint256",
          "name": "amountInMax",
          "type": "uint256"
        },
        {
          "internalType": "address[]",
          "name": "path",
          "type": "address[]"
        },
        {
          "internalType": "address",
          "name": "to",
          "type": "address"
        },
        {
          "internalType": "uint256",
          "name": "deadline",
          "type": "uint256"
        }
      ],
      "name": "swapTokensForExactTokens",
      "outputs": [
        {
          "internalType": "uint256[]",
          "name": "amounts",
          "type": "uint256[]"
        }
      ],
      "stateMutability": "nonpayable",
      "type": "function"
    },
    {
      "inputs": [
        {
          "internalType": "uint256",
          "name": "amountOutMin",
          "type": "uint256"
        },
        {
          "internalType": "address[]",
          "name": "path",
          "type": "address[]"
        },
        {
          "internalType": "address",
          "name": "to",
          "type": "address"
        },
        {
          "internalType": "uint256",
          "name": "deadline",
          "type": "uint256"
        }
      ],
      "name": "swapExactTRXForTokens",
      "outputs": [
        {
          "internalType": "uint256[]",
          "name": "amounts",
          "type": "uint256[]"
        }
      ],
      "stateMutability": "payable",
      "type": "function"
    },
    {
      "inputs": [
        {
          "internalType": "uint256",
          "name": "amountOut",
          "type": "uint256"
        },
        {
          "internalType": "uint256",
          "name": "amountInMax",
          "type": "uint256"
        },
        {
          "internalType": "address[]",
          "name": "path",
          "type": "address[]"
        },
        {
          "internalType": "address",
          "name": "to",
          "type": "address"
        },
        {
          "internalType": "uint256",
          "name": "deadline",
          "type": "uint256"
        }
      ],
      "name": "swapTokensForExactTRX",
      "outputs": [
        {
          "internalType": "uint256[]",
          "name": "amounts",
          "type": "uint256[]"
        }
      ],
      "stateMutability": "nonpayable",
      "type": "function"
    },
    {
      "inputs": [
        {
          "internalType": "uint256",
          "name": "amountIn",
          "type": "uint256"
        },
        {
          "internalType": "uint256",
          "name": "amountOutMin",
          "type": "uint256"
        },
        {
          "internalType": "address[]",
          "name": "path",
          "type": "address[]"
        },
        {
          "internalType": "address",
          "name": "to",
          "type": "address"
        },
        {
          "internalType": "uint256",
          "name": "deadline",
          "type": "uint256"
        }
      ],
      "name": "swapExactTokensForTRX",
      "outputs": [
        {
          "internalType": "uint256[]",
          "name": "amounts",
          "type": "uint256[]"
        }
      ],
      "stateMutability": "nonpayable",
      "type": "function"
    },
    {
      "inputs": [
        {
          "internalType": "uint256",
          "name": "amountOut",
          "type": "uint256"
        },
        {
          "internalType": "address[]",
          "name": "path",
          "type": "address[]"
        },
        {
          "internalType": "address",
          "name": "to",
          "type": "address"
        },
        {
          "internalType": "uint256",
          "name": "deadline",
          "type": "uint256"
        }
      ],
      "name": "swapTRXForExactTokens",
      "outputs": [
        {
          "internalType": "uint256[]",
          "name": "amounts",
          "type": "uint256[]"
        }
      ],
      "stateMutability": "payable",
      "type": "function"
    },
    {
      "inputs": [
        {
          "internalType": "uint256",
          "name": "amountIn",
          "type": "uint256"
        },
        {
          "internalType": "uint256",
          "name": "amountOutMin",
          "type": "uint256"
        },
        {
          "internalType": "address[]",
          "name": "path",
          "type": "address[]"
        },
        {
          "internalType": "address",
          "name": "to",
          "type": "address"
        },
        {
          "internalType": "uint256",
          "name": "deadline",
          "type": "uint256"
        }
      ],
      "name": "swapExactTokensForTokensSupportingFeeOnTransferTokens",
      "outputs": [],
      "stateMutability": "nonpayable",
      "type": "function"
    },
    {
      "inputs": [
        {
          "internalType": "uint256",
          "name": "amountOutMin",
          "type": "uint256"
        },
        {
          "internalType": "address[]",
          "name": "path",
          "type": "address[]"
        },
        {
          "internalType": "address",
          "name": "to",
          "type": "address"
        },
        {
          "internalType": "uint256",
          "name": "deadline",
          "type": "uint256"
        }
      ],
      "name": "swapExactTRXForTokensSupportingFeeOnTransferTokens",
      "outputs": [],
      "stateMutability": "payable",
      "type": "function"
    },
    {
      "inputs": [
        {
          "internalType": "uint256",
          "name": "amountIn",
          "type": "uint256"
        },
        {
          "internalType": "uint256",
          "name": "amountOutMin",
          "type": "uint256"
        },
        {
          "internalType": "address[]",
          "name": "path",
          "type": "address[]"
        },
        {
          "internalType": "address",
          "name": "to",
          "type": "address"
        },
        {
          "internalType": "uint256",
          "name": "deadline",
          "type": "uint256"
        }
      ],
      "name": "swapExactTokensForTRXSupportingFeeOnTransferTokens",
      "outputs": [],
      "stateMutability": "nonpayable",
      "type": "function"
    },
    {
      "inputs": [
        {
          "internalType": "uint256",
          "name": "amountA",
          "type": "uint256"
        },
        {
          "internalType": "uint256",
          "name": "reserveA",
          "type": "uint256"
        },
        {
          "internalType": "uint256",
          "name": "reserveB",
          "type": "uint256"
        }
      ],
      "name": "quote",
      "outputs": [
        {
          "internalType": "uint256",
          "name": "amountB",
          "type": "uint256"
        }
      ],
      "stateMutability": "pure",
      "type": "function"
    },
    {
      "inputs": [
        {
          "internalType": "uint256",
          "name": "amountIn",
          "type": "uint256"
        },
        {
          "internalType": "uint256",
          "name": "reserveIn",
          "type": "uint256"
        },
        {
          "internalType": "uint256",
          "name": "reserveOut",
          "type": "uint256"
        }
      ],
      "name": "getAmountOut",
      "outputs": [
        {
          "internalType": "uint256",
          "name": "amountOut",
          "type": "uint256"
        }
      ],
      "stateMutability": "pure",
      "type": "function"
    },
    {
      "inputs": [
        {
          "internalType": "uint256",
          "name": "amountOut",
          "type": "uint256"
        },
        {
          "internalType": "uint256",
          "name": "reserveIn",
          "type": "uint256"
        },
        {
          "internalType": "uint256",
          "name": "reserveOut",
          "type": "uint256"
        }
      ],
      "name": "getAmountIn",
      "outputs": [
        {
          "internalType": "uint256",
          "name": "amountIn",
          "type": "uint256"
        }
      ],
      "stateMutability": "pure",
      "type": "function"
    },
    {
      "inputs": [
        {
          "internalType": "uint256",
          "name": "amountIn",
          "type": "uint256"
        },
        {
          "internalType": "address[]",
          "name": "path",
          "type": "address[]"
        }
      ],
      "name": "getAmountsOut",
      "outputs": [
        {
          "internalType": "uint256[]",
          "name": "amounts",
          "type": "uint256[]"
        }
      ],
      "stateMutability": "view",
      "type": "function"
    },
    {
      "inputs": [
        {
          "internalType": "uint256",
          "name": "amountOut",
          "type": "uint256"
        },
        {
          "internalType": "address[]",
          "name": "path",
          "type": "address[]"
        }
      ],
      "name": "getAmountsIn",
      "outputs": [
        {
          "internalType": "uint256[]",
          "name": "amounts",
          "type": "uint256[]"
        }
      ],
      "stateMutability": "view",
      "type": "function"
    }
  ],
  "bytecode": "0x60806040523480156200001157600080fd5b50d380156200001f57600080fd5b50d280156200002d57600080fd5b5060405162006c8938038062006c89833981810160405260408110156200005357600080fd5b810190808051906020019092919080519060200190929190505050816000806101000a81548173ffffffffffffffffffffffffffffffffffffffff021916908373ffffffffffffffffffffffffffffffffffffffff16021790555080600160006101000a81548173ffffffffffffffffffffffffffffffffffffffff021916908373ffffffffffffffffffffffffffffffffffffffff1602179055505050616b8880620001016000396000f3fe60806040526004361061014f5760003560e01c806382bcc5da116100b6578063baa2abde1161006f578063baa2abde14611239578063c45a015514611327578063d06ca61f14611398578063e07094f3146114d6578063e8e3370014611547578063f037219f1461164757610150565b806382bcc5da14610d6557806385f8c25914610e985780638803dbee14610f1557806389f6bd5d146110485780639bfe5e05146110f5578063ad615dec146111bc57610150565b806329dc09961161010857806329dc09961461078057806338ed1739146108755780633ff82e32146109a85780635c11d79514610adb5780636d1eb33414610bb95780636f65345214610c8757610150565b8063054d50d4146101a95780630cfedc68146102265780631cf4401e146103225780631f00ca74146104245780632195995c14610562578063246ea4131461067e57610150565b5b600160009054906101000a900473ffffffffffffffffffffffffffffffffffffffff1673ffffffffffffffffffffffffffffffffffffffff163373ffffffffffffffffffffffffffffffffffffffff16146101a757fe5b005b3480156101b557600080fd5b50d380156101c257600080fd5b50d280156101cf57600080fd5b50610210600480360360608110156101e657600080fd5b810190808035906020019092919080359060200190929190803590602001909291905050506116f5565b6040518082815260200191505060405180910390f35b34801561023257600080fd5b50d3801561023f57600080fd5b50d2801561024c57600080fd5b50610305600480360361014081101561026457600080fd5b81019080803573ffffffffffffffffffffffffffffffffffffffff169060200190929190803590602001909291908035906020019092919080359060200190929190803573ffffffffffffffffffffffffffffffffffffffff16906020019092919080359060200190929190803515159060200190929190803560ff169060200190929190803590602001909291908035906020019092919050505061170b565b604051808381526020018281526020019250505060405180910390f35b6103cd6004803603608081101561033857600080fd5b81019080803590602001909291908035906020019064010000000081111561035f57600080fd5b82018360208201111561037157600080fd5b8035906020019184602083028401116401000000008311171561039357600080fd5b9091929391929390803573ffffffffffffffffffffffffffffffffffffffff169060200190929190803590602001909291905050506118b1565b6040518080602001828103825283818151815260200191508051906020019060200280838360005b838110156104105780820151818401526020810190506103f5565b505050509050019250505060405180910390f35b34801561043057600080fd5b50d3801561043d57600080fd5b50d2801561044a57600080fd5b5061050b6004803603604081101561046157600080fd5b81019080803590602001909291908035906020019064010000000081111561048857600080fd5b82018360208201111561049a57600080fd5b803590602001918460208302840111640100000000831117156104bc57600080fd5b919080806020026020016040519081016040528093929190818152602001838360200280828437600081840152601f19601f820116905080830192505050505050509192919290505050611d5d565b6040518080602001828103825283818151815260200191508051906020019060200280838360005b8381101561054e578082015181840152602081019050610533565b505050509050019250505060405180910390f35b34801561056e57600080fd5b50d3801561057b57600080fd5b50d2801561058857600080fd5b5061066160048036036101608110156105a057600080fd5b81019080803573ffffffffffffffffffffffffffffffffffffffff169060200190929190803573ffffffffffffffffffffffffffffffffffffffff169060200190929190803590602001909291908035906020019092919080359060200190929190803573ffffffffffffffffffffffffffffffffffffffff16906020019092919080359060200190929190803515159060200190929190803560ff1690602001909291908035906020019092919080359060200190929190505050611d93565b604051808381526020018281526020019250505060405180910390f35b6107296004803603608081101561069457600080fd5b8101908080359060200190929190803590602001906401000000008111156106bb57600080fd5b8201836020820111156106cd57600080fd5b803590602001918460208302840111640100000000831117156106ef57600080fd5b9091929391929390803573ffffffffffffffffffffffffffffffffffffffff16906020019092919080359060200190929190505050611f19565b6040518080602001828103825283818151815260200191508051906020019060200280838360005b8381101561076c578082015181840152602081019050610751565b505050509050019250505060405180910390f35b34801561078c57600080fd5b50d3801561079957600080fd5b50d280156107a657600080fd5b5061085f60048036036101408110156107be57600080fd5b81019080803573ffffffffffffffffffffffffffffffffffffffff169060200190929190803590602001909291908035906020019092919080359060200190929190803573ffffffffffffffffffffffffffffffffffffffff16906020019092919080359060200190929190803515159060200190929190803560ff16906020019092919080359060200190929190803590602001909291905050506123ff565b6040518082815260200191505060405180910390f35b34801561088157600080fd5b50d3801561088e57600080fd5b50d2801561089b57600080fd5b50610951600480360360a08110156108b257600080fd5b810190808035906020019092919080359060200190929190803590602001906401000000008111156108e357600080fd5b8201836020820111156108f557600080fd5b8035906020019184602083028401116401000000008311171561091757600080fd5b9091929391929390803573ffffffffffffffffffffffffffffffffffffffff1690602001909291908035906020019092919050505061259c565b6040518080602001828103825283818151815260200191508051906020019060200280838360005b83811015610994578082015181840152602081019050610979565b505050509050019250505060405180910390f35b3480156109b457600080fd5b50d380156109c157600080fd5b50d280156109ce57600080fd5b50610a84600480360360a08110156109e557600080fd5b81019080803590602001909291908035906020019092919080359060200190640100000000811115610a1657600080fd5b820183602082011115610a2857600080fd5b80359060200191846020830284011164010000000083111715610a4a57600080fd5b9091929391929390803573ffffffffffffffffffffffffffffffffffffffff16906020019092919080359060200190929190505050612811565b6040518080602001828103825283818151815260200191508051906020019060200280838360005b83811015610ac7578082015181840152602081019050610aac565b505050509050019250505060405180910390f35b348015610ae757600080fd5b50d38015610af457600080fd5b50d28015610b0157600080fd5b50610bb7600480360360a0811015610b1857600080fd5b81019080803590602001909291908035906020019092919080359060200190640100000000811115610b4957600080fd5b820183602082011115610b5b57600080fd5b80359060200191846020830284011164010000000083111715610b7d57600080fd5b9091929391929390803573ffffffffffffffffffffffffffffffffffffffff16906020019092919080359060200190929190505050612c3c565b005b348015610bc557600080fd5b50d38015610bd257600080fd5b50d28015610bdf57600080fd5b50610c6a600480360360c0811015610bf657600080fd5b81019080803573ffffffffffffffffffffffffffffffffffffffff169060200190929190803590602001909291908035906020019092919080359060200190929190803573ffffffffffffffffffffffffffffffffffffffff16906020019092919080359060200190929190505050612ff4565b604051808381526020018281526020019250505060405180910390f35b348015610c9357600080fd5b50d38015610ca057600080fd5b50d28015610cad57600080fd5b50610d63600480360360a0811015610cc457600080fd5b81019080803590602001909291908035906020019092919080359060200190640100000000811115610cf557600080fd5b820183602082011115610d0757600080fd5b80359060200191846020830284011164010000000083111715610d2957600080fd5b9091929391929390803573ffffffffffffffffffffffffffffffffffffffff16906020019092919080359060200190929190505050613155565b005b348015610d7157600080fd5b50d38015610d7e57600080fd5b50d28015610d8b57600080fd5b50610e41600480360360a0811015610da257600080fd5b81019080803590602001909291908035906020019092919080359060200190640100000000811115610dd357600080fd5b820183602082011115610de557600080fd5b80359060200191846020830284011164010000000083111715610e0757600080fd5b9091929391929390803573ffffffffffffffffffffffffffffffffffffffff16906020019092919080359060200190929190505050613592565b6040518080602001828103825283818151815260200191508051906020019060200280838360005b83811015610e84578082015181840152602081019050610e69565b505050509050019250505060405180910390f35b348015610ea457600080fd5b50d38015610eb157600080fd5b50d28015610ebe57600080fd5b50610eff60048036036060811015610ed557600080fd5b810190808035906020019092919080359060200190929190803590602001909291905050506139ba565b6040518082815260200191505060405180910390f35b348015610f2157600080fd5b50d38015610f2e57600080fd5b50d28015610f3b57600080fd5b50610ff1600480360360a0811015610f5257600080fd5b81019080803590602001909291908035906020019092919080359060200190640100000000811115610f8357600080fd5b820183602082011115610f9557600080fd5b80359060200191846020830284011164010000000083111715610fb757600080fd5b9091929391929390803573ffffffffffffffffffffffffffffffffffffffff169060200190929190803590602001909291905050506139d0565b6040518080602001828103825283818151815260200191508051906020019060200280838360005b83811015611034578082015181840152602081019050611019565b505050509050019250505060405180910390f35b6110f36004803603608081101561105e57600080fd5b81019080803590602001909291908035906020019064010000000081111561108557600080fd5b82018360208201111561109757600080fd5b803590602001918460208302840111640100000000831117156110b957600080fd5b9091929391929390803573ffffffffffffffffffffffffffffffffffffffff16906020019092919080359060200190929190505050613c42565b005b34801561110157600080fd5b50d3801561110e57600080fd5b50d2801561111b57600080fd5b506111a6600480360360c081101561113257600080fd5b81019080803573ffffffffffffffffffffffffffffffffffffffff169060200190929190803590602001909291908035906020019092919080359060200190929190803573ffffffffffffffffffffffffffffffffffffffff16906020019092919080359060200190929190505050614223565b6040518082815260200191505060405180910390f35b3480156111c857600080fd5b50d380156111d557600080fd5b50d280156111e257600080fd5b50611223600480360360608110156111f957600080fd5b81019080803590602001909291908035906020019092919080359060200190929190505050614437565b6040518082815260200191505060405180910390f35b34801561124557600080fd5b50d3801561125257600080fd5b50d2801561125f57600080fd5b5061130a600480360360e081101561127657600080fd5b81019080803573ffffffffffffffffffffffffffffffffffffffff169060200190929190803573ffffffffffffffffffffffffffffffffffffffff169060200190929190803590602001909291908035906020019092919080359060200190929190803573ffffffffffffffffffffffffffffffffffffffff1690602001909291908035906020019092919050505061444d565b604051808381526020018281526020019250505060405180910390f35b34801561133357600080fd5b50d3801561134057600080fd5b50d2801561134d57600080fd5b506113566147cf565b604051808273ffffffffffffffffffffffffffffffffffffffff1673ffffffffffffffffffffffffffffffffffffffff16815260200191505060405180910390f35b3480156113a457600080fd5b50d380156113b157600080fd5b50d280156113be57600080fd5b5061147f600480360360408110156113d557600080fd5b8101908080359060200190929190803590602001906401000000008111156113fc57600080fd5b82018360208201111561140e57600080fd5b8035906020019184602083028401116401000000008311171561143057600080fd5b919080806020026020016040519081016040528093929190818152602001838360200280828437600081840152601f19601f8201169050808301925050505050505091929192905050506147f4565b6040518080602001828103825283818151815260200191508051906020019060200280838360005b838110156114c25780820151818401526020810190506114a7565b505050509050019250505060405180910390f35b3480156114e257600080fd5b50d380156114ef57600080fd5b50d280156114fc57600080fd5b5061150561482a565b604051808273ffffffffffffffffffffffffffffffffffffffff1673ffffffffffffffffffffffffffffffffffffffff16815260200191505060405180910390f35b34801561155357600080fd5b50d3801561156057600080fd5b50d2801561156d57600080fd5b50611623600480360361010081101561158557600080fd5b81019080803573ffffffffffffffffffffffffffffffffffffffff169060200190929190803573ffffffffffffffffffffffffffffffffffffffff16906020019092919080359060200190929190803590602001909291908035906020019092919080359060200190929190803573ffffffffffffffffffffffffffffffffffffffff16906020019092919080359060200190929190505050614850565b60405180848152602001838152602001828152602001935050505060405180910390f35b6116d1600480360360c081101561165d57600080fd5b81019080803573ffffffffffffffffffffffffffffffffffffffff169060200190929190803590602001909291908035906020019092919080359060200190929190803573ffffffffffffffffffffffffffffffffffffffff169060200190929190803590602001909291905050506149f6565b60405180848152602001838152602001828152602001935050505060405180910390f35b6000611702848484614d54565b90509392505050565b600080600061175e6000809054906101000a900473ffffffffffffffffffffffffffffffffffffffff168e600160009054906101000a900473ffffffffffffffffffffffffffffffffffffffff16614e84565b905060008761176d578c61178f565b7fffffffffffffffffffffffffffffffffffffffffffffffffffffffffffffffff5b90508173ffffffffffffffffffffffffffffffffffffffff1663d505accf3330848d8c8c8c6040518863ffffffff1660e01b8152600401808873ffffffffffffffffffffffffffffffffffffffff1673ffffffffffffffffffffffffffffffffffffffff1681526020018773ffffffffffffffffffffffffffffffffffffffff1673ffffffffffffffffffffffffffffffffffffffff1681526020018681526020018581526020018460ff1660ff168152602001838152602001828152602001975050505050505050600060405180830381600087803b15801561187257600080fd5b505af1158015611886573d6000803e3d6000fd5b505050506118988e8e8e8e8e8e612ff4565b809450819550505050509a509a98505050505050505050565b6060814281101561192a576040517f08c379a00000000000000000000000000000000000000000000000000000000081526004018080602001828103825260178152602001807f5472756573776170526f757465723a204558504952454400000000000000000081525060200191505060405180910390fd5b600160009054906101000a900473ffffffffffffffffffffffffffffffffffffffff1673ffffffffffffffffffffffffffffffffffffffff168686600081811061197057fe5b9050602002013573ffffffffffffffffffffffffffffffffffffffff1673ffffffffffffffffffffffffffffffffffffffff1614611a16576040517f08c379a000000000000000000000000000000000000000000000000000000000815260040180806020018281038252601c8152602001807f5472756573776170526f757465723a20494e56414c49445f504154480000000081525060200191505060405180910390fd5b611a836000809054906101000a900473ffffffffffffffffffffffffffffffffffffffff1634888880806020026020016040519081016040528093929190818152602001838360200280828437600081840152601f19601f82011690508083019250505050505050615004565b91508682600184510381518110611a9657fe5b60200260200101511015611af5576040517f08c379a000000000000000000000000000000000000000000000000000000000815260040180806020018281038252602a8152602001806169d3602a913960400191505060405180910390fd5b600160009054906101000a900473ffffffffffffffffffffffffffffffffffffffff1673ffffffffffffffffffffffffffffffffffffffff1663d0e30db083600081518110611b4057fe5b60200260200101516040518263ffffffff1660e01b81526004016000604051808303818588803b158015611b7357600080fd5b505af1158015611b87573d6000803e3d6000fd5b5050505050600160009054906101000a900473ffffffffffffffffffffffffffffffffffffffff1673ffffffffffffffffffffffffffffffffffffffff1663a9059cbb611c486000809054906101000a900473ffffffffffffffffffffffffffffffffffffffff1689896000818110611bfc57fe5b9050602002013573ffffffffffffffffffffffffffffffffffffffff168a8a6001818110611c2657fe5b9050602002013573ffffffffffffffffffffffffffffffffffffffff16614e84565b84600081518110611c5557fe5b60200260200101516040518363ffffffff1660e01b8152600401808373ffffffffffffffffffffffffffffffffffffffff1673ffffffffffffffffffffffffffffffffffffffff16815260200182815260200192505050602060405180830381600087803b158015611cc657600080fd5b505af1158015611cda573d6000803e3d6000fd5b505050506040513d6020811015611cf057600080fd5b8101908080519060200190929190505050611d0757fe5b611d5382878780806020026020016040519081016040528093929190818152602001838360200280828437600081840152601f19601f8201169050808301925050505050505086615165565b5095945050505050565b6060611d8b6000809054906101000a900473ffffffffffffffffffffffffffffffffffffffff1684846153fb565b905092915050565b6000806000611dc46000809054906101000a900473ffffffffffffffffffffffffffffffffffffffff168f8f614e84565b9050600087611dd3578c611df5565b7fffffffffffffffffffffffffffffffffffffffffffffffffffffffffffffffff5b90508173ffffffffffffffffffffffffffffffffffffffff1663d505accf3330848d8c8c8c6040518863ffffffff1660e01b8152600401808873ffffffffffffffffffffffffffffffffffffffff1673ffffffffffffffffffffffffffffffffffffffff1681526020018773ffffffffffffffffffffffffffffffffffffffff1673ffffffffffffffffffffffffffffffffffffffff1681526020018681526020018581526020018460ff1660ff168152602001838152602001828152602001975050505050505050600060405180830381600087803b158015611ed857600080fd5b505af1158015611eec573d6000803e3d6000fd5b50505050611eff8f8f8f8f8f8f8f61444d565b809450819550505050509b509b9950505050505050505050565b60608142811015611f92576040517f08c379a00000000000000000000000000000000000000000000000000000000081526004018080602001828103825260178152602001807f5472756573776170526f757465723a204558504952454400000000000000000081525060200191505060405180910390fd5b600160009054906101000a900473ffffffffffffffffffffffffffffffffffffffff1673ffffffffffffffffffffffffffffffffffffffff1686866000818110611fd857fe5b9050602002013573ffffffffffffffffffffffffffffffffffffffff1673ffffffffffffffffffffffffffffffffffffffff161461207e576040517f08c379a000000000000000000000000000000000000000000000000000000000815260040180806020018281038252601c8152602001807f5472756573776170526f757465723a20494e56414c49445f504154480000000081525060200191505060405180910390fd5b6120eb6000809054906101000a900473ffffffffffffffffffffffffffffffffffffffff1688888880806020026020016040519081016040528093929190818152602001838360200280828437600081840152601f19601f820116905080830192505050505050506153fb565b915034826000815181106120fb57fe5b6020026020010151111561215a576040517f08c379a0000000000000000000000000000000000000000000000000000000008152600401808060200182810382526026815260200180616b2d6026913960400191505060405180910390fd5b600160009054906101000a900473ffffffffffffffffffffffffffffffffffffffff1673ffffffffffffffffffffffffffffffffffffffff1663d0e30db0836000815181106121a557fe5b60200260200101516040518263ffffffff1660e01b81526004016000604051808303818588803b1580156121d857600080fd5b505af11580156121ec573d6000803e3d6000fd5b5050505050600160009054906101000a900473ffffffffffffffffffffffffffffffffffffffff1673ffffffffffffffffffffffffffffffffffffffff1663a9059cbb6122ad6000809054906101000a900473ffffffffffffffffffffffffffffffffffffffff168989600081811061226157fe5b9050602002013573ffffffffffffffffffffffffffffffffffffffff168a8a600181811061228b57fe5b9050602002013573ffffffffffffffffffffffffffffffffffffffff16614e84565b846000815181106122ba57fe5b60200260200101516040518363ffffffff1660e01b8152600401808373ffffffffffffffffffffffffffffffffffffffff1673ffffffffffffffffffffffffffffffffffffffff16815260200182815260200192505050602060405180830381600087803b15801561232b57600080fd5b505af115801561233f573d6000803e3d6000fd5b505050506040513d602081101561235557600080fd5b810190808051906020019092919050505061236c57fe5b6123b882878780806020026020016040519081016040528093929190818152602001838360200280828437600081840152601f19601f8201169050808301925050505050505086615165565b816000815181106123c557fe5b60200260200101513411156123f5576123f433836000815181106123e557fe5b60200260200101513403615564565b5b5095945050505050565b6000806124506000809054906101000a900473ffffffffffffffffffffffffffffffffffffffff168d600160009054906101000a900473ffffffffffffffffffffffffffffffffffffffff16614e84565b905060008661245f578b612481565b7fffffffffffffffffffffffffffffffffffffffffffffffffffffffffffffffff5b90508173ffffffffffffffffffffffffffffffffffffffff1663d505accf3330848c8b8b8b6040518863ffffffff1660e01b8152600401808873ffffffffffffffffffffffffffffffffffffffff1673ffffffffffffffffffffffffffffffffffffffff1681526020018773ffffffffffffffffffffffffffffffffffffffff1673ffffffffffffffffffffffffffffffffffffffff1681526020018681526020018581526020018460ff1660ff168152602001838152602001828152602001975050505050505050600060405180830381600087803b15801561256457600080fd5b505af1158015612578573d6000803e3d6000fd5b5050505061258a8d8d8d8d8d8d614223565b925050509a9950505050505050505050565b60608142811015612615576040517f08c379a00000000000000000000000000000000000000000000000000000000081526004018080602001828103825260178152602001807f5472756573776170526f757465723a204558504952454400000000000000000081525060200191505060405180910390fd5b6126826000809054906101000a900473ffffffffffffffffffffffffffffffffffffffff1689888880806020026020016040519081016040528093929190818152602001838360200280828437600081840152601f19601f82011690508083019250505050505050615004565b9150868260018451038151811061269557fe5b602002602001015110156126f4576040517f08c379a000000000000000000000000000000000000000000000000000000000815260040180806020018281038252602a8152602001806169d3602a913960400191505060405180910390fd5b6127ba8686600081811061270457fe5b9050602002013573ffffffffffffffffffffffffffffffffffffffff16336127a06000809054906101000a900473ffffffffffffffffffffffffffffffffffffffff168a8a600081811061275457fe5b9050602002013573ffffffffffffffffffffffffffffffffffffffff168b8b600181811061277e57fe5b9050602002013573ffffffffffffffffffffffffffffffffffffffff16614e84565b856000815181106127ad57fe5b60200260200101516156ac565b61280682878780806020026020016040519081016040528093929190818152602001838360200280828437600081840152601f19601f8201169050808301925050505050505086615165565b509695505050505050565b6060814281101561288a576040517f08c379a00000000000000000000000000000000000000000000000000000000081526004018080602001828103825260178152602001807f5472756573776170526f757465723a204558504952454400000000000000000081525060200191505060405180910390fd5b600160009054906101000a900473ffffffffffffffffffffffffffffffffffffffff1673ffffffffffffffffffffffffffffffffffffffff168686600189899050038181106128d557fe5b9050602002013573ffffffffffffffffffffffffffffffffffffffff1673ffffffffffffffffffffffffffffffffffffffff161461297b576040517f08c379a000000000000000000000000000000000000000000000000000000000815260040180806020018281038252601c8152602001807f5472756573776170526f757465723a20494e56414c49445f504154480000000081525060200191505060405180910390fd5b6129e86000809054906101000a900473ffffffffffffffffffffffffffffffffffffffff1689888880806020026020016040519081016040528093929190818152602001838360200280828437600081840152601f19601f82011690508083019250505050505050615004565b915086826001845103815181106129fb57fe5b60200260200101511015612a5a576040517f08c379a000000000000000000000000000000000000000000000000000000000815260040180806020018281038252602a8152602001806169d3602a913960400191505060405180910390fd5b612b2086866000818110612a6a57fe5b9050602002013573ffffffffffffffffffffffffffffffffffffffff1633612b066000809054906101000a900473ffffffffffffffffffffffffffffffffffffffff168a8a6000818110612aba57fe5b9050602002013573ffffffffffffffffffffffffffffffffffffffff168b8b6001818110612ae457fe5b9050602002013573ffffffffffffffffffffffffffffffffffffffff16614e84565b85600081518110612b1357fe5b60200260200101516156ac565b612b6c82878780806020026020016040519081016040528093929190818152602001838360200280828437600081840152601f19601f8201169050808301925050505050505030615165565b600160009054906101000a900473ffffffffffffffffffffffffffffffffffffffff1673ffffffffffffffffffffffffffffffffffffffff16632e1a7d4d83600185510381518110612bba57fe5b60200260200101516040518263ffffffff1660e01b815260040180828152602001915050600060405180830381600087803b158015612bf857600080fd5b505af1158015612c0c573d6000803e3d6000fd5b50505050612c318483600185510381518110612c2457fe5b6020026020010151615564565b509695505050505050565b8042811015612cb3576040517f08c379a00000000000000000000000000000000000000000000000000000000081526004018080602001828103825260178152602001807f5472756573776170526f757465723a204558504952454400000000000000000081525060200191505060405180910390fd5b612d6585856000818110612cc357fe5b9050602002013573ffffffffffffffffffffffffffffffffffffffff1633612d5f6000809054906101000a900473ffffffffffffffffffffffffffffffffffffffff1689896000818110612d1357fe5b9050602002013573ffffffffffffffffffffffffffffffffffffffff168a8a6001818110612d3d57fe5b9050602002013573ffffffffffffffffffffffffffffffffffffffff16614e84565b8a6156ac565b6000858560018888905003818110612d7957fe5b9050602002013573ffffffffffffffffffffffffffffffffffffffff1673ffffffffffffffffffffffffffffffffffffffff166370a08231856040518263ffffffff1660e01b8152600401808273ffffffffffffffffffffffffffffffffffffffff1673ffffffffffffffffffffffffffffffffffffffff16815260200191505060206040518083038186803b158015612e1257600080fd5b505afa158015612e26573d6000803e3d6000fd5b505050506040513d6020811015612e3c57600080fd5b81019080805190602001909291905050509050612e9a868680806020026020016040519081016040528093929190818152602001838360200280828437600081840152601f19601f82011690508083019250505050505050856158bd565b86612f9382888860018b8b905003818110612eb157fe5b9050602002013573ffffffffffffffffffffffffffffffffffffffff1673ffffffffffffffffffffffffffffffffffffffff166370a08231886040518263ffffffff1660e01b8152600401808273ffffffffffffffffffffffffffffffffffffffff1673ffffffffffffffffffffffffffffffffffffffff16815260200191505060206040518083038186803b158015612f4a57600080fd5b505afa158015612f5e573d6000803e3d6000fd5b505050506040513d6020811015612f7457600080fd5b8101908080519060200190929190505050615d1f90919063ffffffff16565b1015612fea576040517f08c379a000000000000000000000000000000000000000000000000000000000815260040180806020018281038252602a8152602001806169d3602a913960400191505060405180910390fd5b5050505050505050565b600080824281101561306e576040517f08c379a00000000000000000000000000000000000000000000000000000000081526004018080602001828103825260178152602001807f5472756573776170526f757465723a204558504952454400000000000000000081525060200191505060405180910390fd5b61309f89600160009054906101000a900473ffffffffffffffffffffffffffffffffffffffff168a8a8a308a61444d565b80935081945050506130b2898685615da2565b600160009054906101000a900473ffffffffffffffffffffffffffffffffffffffff1673ffffffffffffffffffffffffffffffffffffffff16632e1a7d4d836040518263ffffffff1660e01b815260040180828152602001915050600060405180830381600087803b15801561312757600080fd5b505af115801561313b573d6000803e3d6000fd5b505050506131498583615564565b50965096945050505050565b80428110156131cc576040517f08c379a00000000000000000000000000000000000000000000000000000000081526004018080602001828103825260178152602001807f5472756573776170526f757465723a204558504952454400000000000000000081525060200191505060405180910390fd5b600160009054906101000a900473ffffffffffffffffffffffffffffffffffffffff1673ffffffffffffffffffffffffffffffffffffffff1685856001888890500381811061321757fe5b9050602002013573ffffffffffffffffffffffffffffffffffffffff1673ffffffffffffffffffffffffffffffffffffffff16146132bd576040517f08c379a000000000000000000000000000000000000000000000000000000000815260040180806020018281038252601c8152602001807f5472756573776170526f757465723a20494e56414c49445f504154480000000081525060200191505060405180910390fd5b61336f858560008181106132cd57fe5b9050602002013573ffffffffffffffffffffffffffffffffffffffff16336133696000809054906101000a900473ffffffffffffffffffffffffffffffffffffffff168989600081811061331d57fe5b9050602002013573ffffffffffffffffffffffffffffffffffffffff168a8a600181811061334757fe5b9050602002013573ffffffffffffffffffffffffffffffffffffffff16614e84565b8a6156ac565b6133ba858580806020026020016040519081016040528093929190818152602001838360200280828437600081840152601f19601f82011690508083019250505050505050306158bd565b6000600160009054906101000a900473ffffffffffffffffffffffffffffffffffffffff1673ffffffffffffffffffffffffffffffffffffffff166370a08231306040518263ffffffff1660e01b8152600401808273ffffffffffffffffffffffffffffffffffffffff1673ffffffffffffffffffffffffffffffffffffffff16815260200191505060206040518083038186803b15801561345b57600080fd5b505afa15801561346f573d6000803e3d6000fd5b505050506040513d602081101561348557600080fd5b81019080805190602001909291905050509050868110156134f1576040517f08c379a000000000000000000000000000000000000000000000000000000000815260040180806020018281038252602a8152602001806169d3602a913960400191505060405180910390fd5b600160009054906101000a900473ffffffffffffffffffffffffffffffffffffffff1673ffffffffffffffffffffffffffffffffffffffff16632e1a7d4d826040518263ffffffff1660e01b815260040180828152602001915050600060405180830381600087803b15801561356657600080fd5b505af115801561357a573d6000803e3d6000fd5b505050506135888482615564565b5050505050505050565b6060814281101561360b576040517f08c379a00000000000000000000000000000000000000000000000000000000081526004018080602001828103825260178152602001807f5472756573776170526f757465723a204558504952454400000000000000000081525060200191505060405180910390fd5b600160009054906101000a900473ffffffffffffffffffffffffffffffffffffffff1673ffffffffffffffffffffffffffffffffffffffff1686866001898990500381811061365657fe5b9050602002013573ffffffffffffffffffffffffffffffffffffffff1673ffffffffffffffffffffffffffffffffffffffff16146136fc576040517f08c379a000000000000000000000000000000000000000000000000000000000815260040180806020018281038252601c8152602001807f5472756573776170526f757465723a20494e56414c49445f504154480000000081525060200191505060405180910390fd5b6137696000809054906101000a900473ffffffffffffffffffffffffffffffffffffffff1689888880806020026020016040519081016040528093929190818152602001838360200280828437600081840152601f19601f820116905080830192505050505050506153fb565b9150868260008151811061377957fe5b602002602001015111156137d8576040517f08c379a0000000000000000000000000000000000000000000000000000000008152600401808060200182810382526026815260200180616b2d6026913960400191505060405180910390fd5b61389e868660008181106137e857fe5b9050602002013573ffffffffffffffffffffffffffffffffffffffff16336138846000809054906101000a900473ffffffffffffffffffffffffffffffffffffffff168a8a600081811061383857fe5b9050602002013573ffffffffffffffffffffffffffffffffffffffff168b8b600181811061386257fe5b9050602002013573ffffffffffffffffffffffffffffffffffffffff16614e84565b8560008151811061389157fe5b60200260200101516156ac565b6138ea82878780806020026020016040519081016040528093929190818152602001838360200280828437600081840152601f19601f8201169050808301925050505050505030615165565b600160009054906101000a900473ffffffffffffffffffffffffffffffffffffffff1673ffffffffffffffffffffffffffffffffffffffff16632e1a7d4d8360018551038151811061393857fe5b60200260200101516040518263ffffffff1660e01b815260040180828152602001915050600060405180830381600087803b15801561397657600080fd5b505af115801561398a573d6000803e3d6000fd5b505050506139af84836001855103815181106139a257fe5b6020026020010151615564565b509695505050505050565b60006139c7848484615fab565b90509392505050565b60608142811015613a49576040517f08c379a00000000000000000000000000000000000000000000000000000000081526004018080602001828103825260178152602001807f5472756573776170526f757465723a204558504952454400000000000000000081525060200191505060405180910390fd5b613ab66000809054906101000a900473ffffffffffffffffffffffffffffffffffffffff1689888880806020026020016040519081016040528093929190818152602001838360200280828437600081840152601f19601f820116905080830192505050505050506153fb565b91508682600081518110613ac657fe5b60200260200101511115613b25576040517f08c379a0000000000000000000000000000000000000000000000000000000008152600401808060200182810382526026815260200180616b2d6026913960400191505060405180910390fd5b613beb86866000818110613b3557fe5b9050602002013573ffffffffffffffffffffffffffffffffffffffff1633613bd16000809054906101000a900473ffffffffffffffffffffffffffffffffffffffff168a8a6000818110613b8557fe5b9050602002013573ffffffffffffffffffffffffffffffffffffffff168b8b6001818110613baf57fe5b9050602002013573ffffffffffffffffffffffffffffffffffffffff16614e84565b85600081518110613bde57fe5b60200260200101516156ac565b613c3782878780806020026020016040519081016040528093929190818152602001838360200280828437600081840152601f19601f8201169050808301925050505050505086615165565b509695505050505050565b8042811015613cb9576040517f08c379a00000000000000000000000000000000000000000000000000000000081526004018080602001828103825260178152602001807f5472756573776170526f757465723a204558504952454400000000000000000081525060200191505060405180910390fd5b600160009054906101000a900473ffffffffffffffffffffffffffffffffffffffff1673ffffffffffffffffffffffffffffffffffffffff1685856000818110613cff57fe5b9050602002013573ffffffffffffffffffffffffffffffffffffffff1673ffffffffffffffffffffffffffffffffffffffff1614613da5576040517f08c379a000000000000000000000000000000000000000000000000000000000815260040180806020018281038252601c8152602001807f5472756573776170526f757465723a20494e56414c49445f504154480000000081525060200191505060405180910390fd5b6000349050600160009054906101000a900473ffffffffffffffffffffffffffffffffffffffff1673ffffffffffffffffffffffffffffffffffffffff1663d0e30db0826040518263ffffffff1660e01b81526004016000604051808303818588803b158015613e1457600080fd5b505af1158015613e28573d6000803e3d6000fd5b5050505050600160009054906101000a900473ffffffffffffffffffffffffffffffffffffffff1673ffffffffffffffffffffffffffffffffffffffff1663a9059cbb613ee96000809054906101000a900473ffffffffffffffffffffffffffffffffffffffff1689896000818110613e9d57fe5b9050602002013573ffffffffffffffffffffffffffffffffffffffff168a8a6001818110613ec757fe5b9050602002013573ffffffffffffffffffffffffffffffffffffffff16614e84565b836040518363ffffffff1660e01b8152600401808373ffffffffffffffffffffffffffffffffffffffff1673ffffffffffffffffffffffffffffffffffffffff16815260200182815260200192505050602060405180830381600087803b158015613f5357600080fd5b505af1158015613f67573d6000803e3d6000fd5b505050506040513d6020811015613f7d57600080fd5b8101908080519060200190929190505050613f9457fe5b6000868660018989905003818110613fa857fe5b9050602002013573ffffffffffffffffffffffffffffffffffffffff1673ffffffffffffffffffffffffffffffffffffffff166370a08231866040518263ffffffff1660e01b8152600401808273ffffffffffffffffffffffffffffffffffffffff1673ffffffffffffffffffffffffffffffffffffffff16815260200191505060206040518083038186803b15801561404157600080fd5b505afa158015614055573d6000803e3d6000fd5b505050506040513d602081101561406b57600080fd5b810190808051906020019092919050505090506140c9878780806020026020016040519081016040528093929190818152602001838360200280828437600081840152601f19601f82011690508083019250505050505050866158bd565b876141c282898960018c8c9050038181106140e057fe5b9050602002013573ffffffffffffffffffffffffffffffffffffffff1673ffffffffffffffffffffffffffffffffffffffff166370a08231896040518263ffffffff1660e01b8152600401808273ffffffffffffffffffffffffffffffffffffffff1673ffffffffffffffffffffffffffffffffffffffff16815260200191505060206040518083038186803b15801561417957600080fd5b505afa15801561418d573d6000803e3d6000fd5b505050506040513d60208110156141a357600080fd5b8101908080519060200190929190505050615d1f90919063ffffffff16565b1015614219576040517f08c379a000000000000000000000000000000000000000000000000000000000815260040180806020018281038252602a8152602001806169d3602a913960400191505060405180910390fd5b5050505050505050565b6000814281101561429c576040517f08c379a00000000000000000000000000000000000000000000000000000000081526004018080602001828103825260178152602001807f5472756573776170526f757465723a204558504952454400000000000000000081525060200191505060405180910390fd5b6142cd88600160009054906101000a900473ffffffffffffffffffffffffffffffffffffffff16898989308961444d565b90508092505061439588858a73ffffffffffffffffffffffffffffffffffffffff166370a08231306040518263ffffffff1660e01b8152600401808273ffffffffffffffffffffffffffffffffffffffff1673ffffffffffffffffffffffffffffffffffffffff16815260200191505060206040518083038186803b15801561435557600080fd5b505afa158015614369573d6000803e3d6000fd5b505050506040513d602081101561437f57600080fd5b8101908080519060200190929190505050615da2565b600160009054906101000a900473ffffffffffffffffffffffffffffffffffffffff1673ffffffffffffffffffffffffffffffffffffffff16632e1a7d4d836040518263ffffffff1660e01b815260040180828152602001915050600060405180830381600087803b15801561440a57600080fd5b505af115801561441e573d6000803e3d6000fd5b5050505061442c8483615564565b509695505050505050565b60006144448484846160e8565b90509392505050565b60008082428110156144c7576040517f08c379a00000000000000000000000000000000000000000000000000000000081526004018080602001828103825260178152602001807f5472756573776170526f757465723a204558504952454400000000000000000081525060200191505060405180910390fd5b60006144f56000809054906101000a900473ffffffffffffffffffffffffffffffffffffffff168c8c614e84565b90508073ffffffffffffffffffffffffffffffffffffffff166323b872dd33838c6040518463ffffffff1660e01b8152600401808473ffffffffffffffffffffffffffffffffffffffff1673ffffffffffffffffffffffffffffffffffffffff1681526020018373ffffffffffffffffffffffffffffffffffffffff1673ffffffffffffffffffffffffffffffffffffffff1681526020018281526020019350505050602060405180830381600087803b1580156145b257600080fd5b505af11580156145c6573d6000803e3d6000fd5b505050506040513d60208110156145dc57600080fd5b8101908080519060200190929190505050506000808273ffffffffffffffffffffffffffffffffffffffff166389afcb44896040518263ffffffff1660e01b8152600401808273ffffffffffffffffffffffffffffffffffffffff1673ffffffffffffffffffffffffffffffffffffffff1681526020019150506040805180830381600087803b15801561466f57600080fd5b505af1158015614683573d6000803e3d6000fd5b505050506040513d604081101561469957600080fd5b8101908080519060200190929190805190602001909291905050509150915060006146c48e8e6161cc565b5090508073ffffffffffffffffffffffffffffffffffffffff168e73ffffffffffffffffffffffffffffffffffffffff1614614701578183614704565b82825b80975081985050508a871015614765576040517f08c379a0000000000000000000000000000000000000000000000000000000008152600401808060200182810382526025815260200180616a226025913960400191505060405180910390fd5b898610156147be576040517f08c379a00000000000000000000000000000000000000000000000000000000081526004018080602001828103825260258152602001806169fd6025913960400191505060405180910390fd5b505050505097509795505050505050565b6000809054906101000a900473ffffffffffffffffffffffffffffffffffffffff1681565b60606148226000809054906101000a900473ffffffffffffffffffffffffffffffffffffffff168484615004565b905092915050565b600160009054906101000a900473ffffffffffffffffffffffffffffffffffffffff1681565b600080600083428110156148cc576040517f08c379a00000000000000000000000000000000000000000000000000000000081526004018080602001828103825260178152602001807f5472756573776170526f757465723a204558504952454400000000000000000081525060200191505060405180910390fd5b6148da8c8c8c8c8c8c616343565b809450819550505060006149106000809054906101000a900473ffffffffffffffffffffffffffffffffffffffff168e8e614e84565b905061491e8d3383886156ac565b61492a8c3383876156ac565b8073ffffffffffffffffffffffffffffffffffffffff16636a627842886040518263ffffffff1660e01b8152600401808273ffffffffffffffffffffffffffffffffffffffff1673ffffffffffffffffffffffffffffffffffffffff168152602001915050602060405180830381600087803b1580156149a957600080fd5b505af11580156149bd573d6000803e3d6000fd5b505050506040513d60208110156149d357600080fd5b810190808051906020019092919050505092505050985098509895505050505050565b60008060008342811015614a72576040517f08c379a00000000000000000000000000000000000000000000000000000000081526004018080602001828103825260178152602001807f5472756573776170526f757465723a204558504952454400000000000000000081525060200191505060405180910390fd5b614aa28a600160009054906101000a900473ffffffffffffffffffffffffffffffffffffffff168b348c8c616343565b80945081955050506000614afa6000809054906101000a900473ffffffffffffffffffffffffffffffffffffffff168c600160009054906101000a900473ffffffffffffffffffffffffffffffffffffffff16614e84565b9050614b088b3383886156ac565b600160009054906101000a900473ffffffffffffffffffffffffffffffffffffffff1673ffffffffffffffffffffffffffffffffffffffff1663d0e30db0856040518263ffffffff1660e01b81526004016000604051808303818588803b158015614b7257600080fd5b505af1158015614b86573d6000803e3d6000fd5b5050505050600160009054906101000a900473ffffffffffffffffffffffffffffffffffffffff1673ffffffffffffffffffffffffffffffffffffffff1663a9059cbb82866040518363ffffffff1660e01b8152600401808373ffffffffffffffffffffffffffffffffffffffff1673ffffffffffffffffffffffffffffffffffffffff16815260200182815260200192505050602060405180830381600087803b158015614c3457600080fd5b505af1158015614c48573d6000803e3d6000fd5b505050506040513d6020811015614c5e57600080fd5b8101908080519060200190929190505050614c7557fe5b8073ffffffffffffffffffffffffffffffffffffffff16636a627842886040518263ffffffff1660e01b8152600401808273ffffffffffffffffffffffffffffffffffffffff1673ffffffffffffffffffffffffffffffffffffffff168152602001915050602060405180830381600087803b158015614cf457600080fd5b505af1158015614d08573d6000803e3d6000fd5b505050506040513d6020811015614d1e57600080fd5b8101908080519060200190929190505050925083341115614d4657614d4533853403615564565b5b505096509650969350505050565b6000808411614dae576040517f08c379a000000000000000000000000000000000000000000000000000000000815260040180806020018281038252602a815260200180616b03602a913960400191505060405180910390fd5b600083118015614dbe5750600082115b614e13576040517f08c379a00000000000000000000000000000000000000000000000000000000081526004018080602001828103825260278152602001806169ac6027913960400191505060405180910390fd5b6000614e2a6103e5866166fa90919063ffffffff16565b90506000614e4184836166fa90919063ffffffff16565b90506000614e6c83614e5e6103e8896166fa90919063ffffffff16565b61678f90919063ffffffff16565b9050808281614e7757fe5b0493505050509392505050565b60008373ffffffffffffffffffffffffffffffffffffffff1663e6a4390584846040518363ffffffff1660e01b8152600401808373ffffffffffffffffffffffffffffffffffffffff1673ffffffffffffffffffffffffffffffffffffffff1681526020018273ffffffffffffffffffffffffffffffffffffffff1673ffffffffffffffffffffffffffffffffffffffff1681526020019250505060206040518083038186803b158015614f3757600080fd5b505afa158015614f4b573d6000803e3d6000fd5b505050506040513d6020811015614f6157600080fd5b81019080805190602001909291905050509050600073ffffffffffffffffffffffffffffffffffffffff168173ffffffffffffffffffffffffffffffffffffffff161415614ffa576040517f08c379a0000000000000000000000000000000000000000000000000000000008152600401808060200182810382526026815260200180616a966026913960400191505060405180910390fd5b8090509392505050565b606060028251101561507e576040517f08c379a000000000000000000000000000000000000000000000000000000000815260040180806020018281038252601d8152602001807f54727565737761704c6962726172793a20494e56414c49445f5041544800000081525060200191505060405180910390fd5b81516040519080825280602002602001820160405280156150ae5781602001602082028038833980820191505090505b50905082816000815181106150bf57fe5b60200260200101818152505060005b600183510381101561515d57600080615111878685815181106150ed57fe5b602002602001015187600187018151811061510457fe5b6020026020010151616812565b9150915061513384848151811061512457fe5b60200260200101518383614d54565b84600185018151811061514257fe5b602002602001018181525050505080806001019150506150ce565b509392505050565b60005b60018351038110156153f55760008084838151811061518357fe5b602002602001015185600185018151811061519a57fe5b60200260200101519150915060006151b283836161cc565b50905060008760018601815181106151c657fe5b602002602001015190506000808373ffffffffffffffffffffffffffffffffffffffff168673ffffffffffffffffffffffffffffffffffffffff161461520e57826000615212565b6000835b91509150600060028a51038810615229578861526c565b61526b6000809054906101000a900473ffffffffffffffffffffffffffffffffffffffff16878c60028c018151811061525e57fe5b6020026020010151614e84565b5b905061529a6000809054906101000a900473ffffffffffffffffffffffffffffffffffffffff168888614e84565b73ffffffffffffffffffffffffffffffffffffffff1663022c0d9f84848460006040519080825280601f01601f1916602001820160405280156152ec5781602001600182028038833980820191505090505b506040518563ffffffff1660e01b8152600401808581526020018481526020018373ffffffffffffffffffffffffffffffffffffffff1673ffffffffffffffffffffffffffffffffffffffff16815260200180602001828103825283818151815260200191508051906020019080838360005b8381101561537a57808201518184015260208101905061535f565b50505050905090810190601f1680156153a75780820380516001836020036101000a031916815260200191505b5095505050505050600060405180830381600087803b1580156153c957600080fd5b505af11580156153dd573d6000803e3d6000fd5b50505050505050505050508080600101915050615168565b50505050565b6060600282511015615475576040517f08c379a000000000000000000000000000000000000000000000000000000000815260040180806020018281038252601d8152602001807f54727565737761704c6962726172793a20494e56414c49445f5041544800000081525060200191505060405180910390fd5b81516040519080825280602002602001820160405280156154a55781602001602082028038833980820191505090505b50905082816001835103815181106154b957fe5b6020026020010181815250506000600183510390505b600081111561555c5760008061550f878660018603815181106154ee57fe5b602002602001015187868151811061550257fe5b6020026020010151616812565b9150915061553184848151811061552257fe5b60200260200101518383615fab565b84600185038151811061554057fe5b60200260200101818152505050508080600190039150506154cf565b509392505050565b60008273ffffffffffffffffffffffffffffffffffffffff168260006040519080825280601f01601f1916602001820160405280156155b25781602001600182028038833980820191505090505b506040518082805190602001908083835b602083106155e657805182526020820191506020810190506020830392506155c3565b6001836020036101000a03801982511681845116808217855250505050505090500191505060006040518083038185875af1925050503d8060008114615648576040519150601f19603f3d011682016040523d82523d6000602084013e61564d565b606091505b50509050806156a7576040517f08c379a0000000000000000000000000000000000000000000000000000000008152600401808060200182810382526023815260200180616abc6023913960400191505060405180910390fd5b505050565b600060608573ffffffffffffffffffffffffffffffffffffffff166323b872dd868686604051602401808473ffffffffffffffffffffffffffffffffffffffff1673ffffffffffffffffffffffffffffffffffffffff1681526020018373ffffffffffffffffffffffffffffffffffffffff1673ffffffffffffffffffffffffffffffffffffffff16815260200182815260200193505050506040516020818303038152906040529060e01b6020820180517bffffffffffffffffffffffffffffffffffffffffffffffffffffffff83818316178352505050506040518082805190602001908083835b602083106157b95780518252602082019150602081019050602083039250615796565b6001836020036101000a0380198251168184511680821785525050505050509050019150506000604051808303816000865af19150503d806000811461581b576040519150601f19603f3d011682016040523d82523d6000602084013e615820565b606091505b5091509150818015615860575060008151148061585f575080806020019051602081101561584d57600080fd5b81019080805190602001909291905050505b5b6158b5576040517f08c379a0000000000000000000000000000000000000000000000000000000008152600401808060200182810382526024815260200180616adf6024913960400191505060405180910390fd5b505050505050565b60005b6001835103811015615d1a576000808483815181106158db57fe5b60200260200101518560018501815181106158f257fe5b602002602001015191509150600061590a83836161cc565b509050600061593b6000809054906101000a900473ffffffffffffffffffffffffffffffffffffffff168585614e84565b90506000806000808473ffffffffffffffffffffffffffffffffffffffff16630902f1ac6040518163ffffffff1660e01b815260040160606040518083038186803b15801561598957600080fd5b505afa15801561599d573d6000803e3d6000fd5b505050506040513d60608110156159b357600080fd5b81019080805190602001909291908051906020019092919080519060200190929190505050506dffffffffffffffffffffffffffff1691506dffffffffffffffffffffffffffff1691506000808773ffffffffffffffffffffffffffffffffffffffff168a73ffffffffffffffffffffffffffffffffffffffff1614615a3a578284615a3d565b83835b91509150615b0b828b73ffffffffffffffffffffffffffffffffffffffff166370a082318a6040518263ffffffff1660e01b8152600401808273ffffffffffffffffffffffffffffffffffffffff1673ffffffffffffffffffffffffffffffffffffffff16815260200191505060206040518083038186803b158015615ac257600080fd5b505afa158015615ad6573d6000803e3d6000fd5b505050506040513d6020811015615aec57600080fd5b8101908080519060200190929190505050615d1f90919063ffffffff16565b9550615b18868383614d54565b9450505050506000808573ffffffffffffffffffffffffffffffffffffffff168873ffffffffffffffffffffffffffffffffffffffff1614615b5c57826000615b60565b6000835b91509150600060028c51038a10615b77578a615bba565b615bb96000809054906101000a900473ffffffffffffffffffffffffffffffffffffffff16898e60028e0181518110615bac57fe5b6020026020010151614e84565b5b90508573ffffffffffffffffffffffffffffffffffffffff1663022c0d9f84848460006040519080825280601f01601f191660200182016040528015615c0f5781602001600182028038833980820191505090505b506040518563ffffffff1660e01b8152600401808581526020018481526020018373ffffffffffffffffffffffffffffffffffffffff1673ffffffffffffffffffffffffffffffffffffffff16815260200180602001828103825283818151815260200191508051906020019080838360005b83811015615c9d578082015181840152602081019050615c82565b50505050905090810190601f168015615cca5780820380516001836020036101000a031916815260200191505b5095505050505050600060405180830381600087803b158015615cec57600080fd5b505af1158015615d00573d6000803e3d6000fd5b5050505050505050505050505080806001019150506158c0565b505050565b6000828284039150811115615d9c576040517f08c379a00000000000000000000000000000000000000000000000000000000081526004018080602001828103825260158152602001807f64732d6d6174682d7375622d756e646572666c6f77000000000000000000000081525060200191505060405180910390fd5b92915050565b600060608473ffffffffffffffffffffffffffffffffffffffff1663a9059cbb8585604051602401808373ffffffffffffffffffffffffffffffffffffffff1673ffffffffffffffffffffffffffffffffffffffff168152602001828152602001925050506040516020818303038152906040529060e01b6020820180517bffffffffffffffffffffffffffffffffffffffffffffffffffffffff83818316178352505050506040518082805190602001908083835b60208310615e7b5780518252602082019150602081019050602083039250615e58565b6001836020036101000a0380198251168184511680821785525050505050509050019150506000604051808303816000865af19150503d8060008114615edd576040519150601f19603f3d011682016040523d82523d6000602084013e615ee2565b606091505b5091509150818015615f325750600081511480615f045750615f038561693b565b5b80615f315750808060200190516020811015615f1f57600080fd5b81019080805190602001909291905050505b5b615fa4576040517f08c379a000000000000000000000000000000000000000000000000000000000815260040180806020018281038252601f8152602001807f5472616e7366657248656c7065723a205452414e534645525f4641494c45440081525060200191505060405180910390fd5b5050505050565b6000808411616005576040517f08c379a000000000000000000000000000000000000000000000000000000000815260040180806020018281038252602b815260200180616a47602b913960400191505060405180910390fd5b6000831180156160155750600082115b61606a576040517f08c379a00000000000000000000000000000000000000000000000000000000081526004018080602001828103825260278152602001806169ac6027913960400191505060405180910390fd5b60006160936103e861608587876166fa90919063ffffffff16565b6166fa90919063ffffffff16565b905060006160be6103e56160b08887615d1f90919063ffffffff16565b6166fa90919063ffffffff16565b90506160dd60018284816160ce57fe5b0461678f90919063ffffffff16565b925050509392505050565b6000808411616142576040517f08c379a0000000000000000000000000000000000000000000000000000000008152600401808060200182810382526024815260200180616a726024913960400191505060405180910390fd5b6000831180156161525750600082115b6161a7576040517f08c379a00000000000000000000000000000000000000000000000000000000081526004018080602001828103825260278152602001806169ac6027913960400191505060405180910390fd5b826161bb83866166fa90919063ffffffff16565b816161c257fe5b0490509392505050565b6000808273ffffffffffffffffffffffffffffffffffffffff168473ffffffffffffffffffffffffffffffffffffffff161415616254576040517f08c379a00000000000000000000000000000000000000000000000000000000081526004018080602001828103825260248152602001806169886024913960400191505060405180910390fd5b8273ffffffffffffffffffffffffffffffffffffffff168473ffffffffffffffffffffffffffffffffffffffff161061628e578284616291565b83835b8092508193505050600073ffffffffffffffffffffffffffffffffffffffff168273ffffffffffffffffffffffffffffffffffffffff16141561633c576040517f08c379a000000000000000000000000000000000000000000000000000000000815260040180806020018281038252601d8152602001807f54727565737761704c6962726172793a205a45524f5f4144445245535300000081525060200191505060405180910390fd5b9250929050565b600080600073ffffffffffffffffffffffffffffffffffffffff166000809054906101000a900473ffffffffffffffffffffffffffffffffffffffff1673ffffffffffffffffffffffffffffffffffffffff1663e6a439058a8a6040518363ffffffff1660e01b8152600401808373ffffffffffffffffffffffffffffffffffffffff1673ffffffffffffffffffffffffffffffffffffffff1681526020018273ffffffffffffffffffffffffffffffffffffffff1673ffffffffffffffffffffffffffffffffffffffff1681526020019250505060206040518083038186803b15801561643057600080fd5b505afa158015616444573d6000803e3d6000fd5b505050506040513d602081101561645a57600080fd5b810190808051906020019092919050505073ffffffffffffffffffffffffffffffffffffffff161415616598576000809054906101000a900473ffffffffffffffffffffffffffffffffffffffff1673ffffffffffffffffffffffffffffffffffffffff1663c9c6539689896040518363ffffffff1660e01b8152600401808373ffffffffffffffffffffffffffffffffffffffff1673ffffffffffffffffffffffffffffffffffffffff1681526020018273ffffffffffffffffffffffffffffffffffffffff1673ffffffffffffffffffffffffffffffffffffffff16815260200192505050602060405180830381600087803b15801561655b57600080fd5b505af115801561656f573d6000803e3d6000fd5b505050506040513d602081101561658557600080fd5b8101908080519060200190929190505050505b6000806165c76000809054906101000a900473ffffffffffffffffffffffffffffffffffffffff168b8b616812565b915091506000821480156165db5750600081145b156165ef57878780945081955050506166ed565b60006165fc8984846160e8565b905087811161666d578581101561665e576040517f08c379a00000000000000000000000000000000000000000000000000000000081526004018080602001828103825260258152602001806169fd6025913960400191505060405180910390fd5b888180955081965050506166eb565b600061667a8984866160e8565b90508981111561668657fe5b878110156166df576040517f08c379a0000000000000000000000000000000000000000000000000000000008152600401808060200182810382526025815260200180616a226025913960400191505060405180910390fd5b80898096508197505050505b505b5050965096945050505050565b600080821480616717575082828385029250828161671457fe5b04145b616789576040517f08c379a00000000000000000000000000000000000000000000000000000000081526004018080602001828103825260148152602001807f64732d6d6174682d6d756c2d6f766572666c6f7700000000000000000000000081525060200191505060405180910390fd5b92915050565b600082828401915081101561680c576040517f08c379a00000000000000000000000000000000000000000000000000000000081526004018080602001828103825260148152602001807f64732d6d6174682d6164642d6f766572666c6f7700000000000000000000000081525060200191505060405180910390fd5b92915050565b600080600061682185856161cc565b509050600080616832888888614e84565b73ffffffffffffffffffffffffffffffffffffffff16630902f1ac6040518163ffffffff1660e01b815260040160606040518083038186803b15801561687757600080fd5b505afa15801561688b573d6000803e3d6000fd5b505050506040513d60608110156168a157600080fd5b81019080805190602001909291908051906020019092919080519060200190929190505050506dffffffffffffffffffffffffffff1691506dffffffffffffffffffffffffffff1691508273ffffffffffffffffffffffffffffffffffffffff168773ffffffffffffffffffffffffffffffffffffffff1614616925578082616928565b81815b8095508196505050505050935093915050565b600073a614f803b6fd780986a42c78ec9c7f77e6ded13c73ffffffffffffffffffffffffffffffffffffffff168273ffffffffffffffffffffffffffffffffffffffff1614905091905056fe54727565737761704c6962726172793a204944454e544943414c5f41444452455353455354727565737761704c6962726172793a20494e53554646494349454e545f4c49515549444954595472756573776170526f757465723a20494e53554646494349454e545f4f55545055545f414d4f554e545472756573776170526f757465723a20494e53554646494349454e545f425f414d4f554e545472756573776170526f757465723a20494e53554646494349454e545f415f414d4f554e5454727565737761704c6962726172793a20494e53554646494349454e545f4f55545055545f414d4f554e5454727565737761704c6962726172793a20494e53554646494349454e545f414d4f554e5470616972466f722063616c6c6564206f6e206e6f7420796574206372656174656420706169725472616e7366657248656c7065723a205452585f5452414e534645525f4641494c45445472616e7366657248656c7065723a205452414e534645525f46524f4d5f4641494c454454727565737761704c6962726172793a20494e53554646494349454e545f494e5055545f414d4f554e545472756573776170526f757465723a204558434553534956455f494e5055545f414d4f554e54a2646970667358221220f142619d3e92aeedf33b00ae92bcf3bc7a3ccdbb7c50a00de95a636c7c8fd39364736f6c63430006000033",
  "source": "pragma solidity =0.6.0;\n\nimport './interfaces/V2/ITrueswapFactory.sol';\nimport './libraries/TransferHelper.sol';\n\nimport './interfaces/ITrueswapRouter02.sol';\nimport './libraries/TrueswapLibrary.sol';\nimport './libraries/SafeMath.sol';\nimport './interfaces/IERC20.sol';\nimport './interfaces/IWTRX.sol';\n\ncontract TrueswapRouter02 is ITrueswapRouter02 {\n    using SafeMath for uint;\n\n    address public override factory;\n    address public override WTRX;\n\n    modifier ensure(uint deadline) {\n        require(deadline >= block.timestamp, 'TrueswapRouter: EXPIRED');\n        _;\n    }\n\n    constructor(address _factory, address _WTRX) public {\n        factory = _factory;\n        WTRX = _WTRX;\n    }\n\n    // For TRON smart contracts, fallback functions cannot be triggered when receiving plain TRX\n    /*\n    receive() external payable {\n        assert(msg.sender == WTRX); // only accept TRX via fallback from the WTRX contract\n    }\n    */\n    // \n    fallback() external payable {\n        assert(msg.sender == WTRX); \n    }\n\n    // **** ADD LIQUIDITY ****\n    function _addLiquidity(\n        address tokenA,\n        address tokenB,\n        uint amountADesired,\n        uint amountBDesired,\n        uint amountAMin,\n        uint amountBMin\n    ) internal virtual returns (uint amountA, uint amountB) {\n        // Create the pair if it doesn't exist yet\n        if (ITrueswapFactory(factory).getPair(tokenA, tokenB) == address(0)) {\n            ITrueswapFactory(factory).createPair(tokenA, tokenB);\n        }\n        (uint reserveA, uint reserveB) = TrueswapLibrary.getReserves(factory, tokenA, tokenB);\n        if (reserveA == 0 && reserveB == 0) {\n            (amountA, amountB) = (amountADesired, amountBDesired);\n        } else {\n            uint amountBOptimal = TrueswapLibrary.quote(amountADesired, reserveA, reserveB);\n            if (amountBOptimal <= amountBDesired) {\n                require(amountBOptimal >= amountBMin, 'TrueswapRouter: INSUFFICIENT_B_AMOUNT');\n                (amountA, amountB) = (amountADesired, amountBOptimal);\n            } else {\n                uint amountAOptimal = TrueswapLibrary.quote(amountBDesired, reserveB, reserveA);\n                assert(amountAOptimal <= amountADesired);\n                require(amountAOptimal >= amountAMin, 'TrueswapRouter: INSUFFICIENT_A_AMOUNT');\n                (amountA, amountB) = (amountAOptimal, amountBDesired);\n            }\n        }\n    }\n    function addLiquidity(\n        address tokenA,\n        address tokenB,\n        uint amountADesired,\n        uint amountBDesired,\n        uint amountAMin,\n        uint amountBMin,\n        address to,\n        uint deadline\n    ) external virtual override ensure(deadline) returns (uint amountA, uint amountB, uint liquidity) {\n        (amountA, amountB) = _addLiquidity(tokenA, tokenB, amountADesired, amountBDesired, amountAMin, amountBMin);\n        address pair = TrueswapLibrary.pairFor(factory, tokenA, tokenB);\n        TransferHelper.safeTransferFrom(tokenA, msg.sender, pair, amountA);\n        TransferHelper.safeTransferFrom(tokenB, msg.sender, pair, amountB);\n        liquidity = ITrueswapPair(pair).mint(to);\n    }\n    function addLiquidityTRX(\n        address token,\n        uint amountTokenDesired,\n        uint amountTokenMin,\n        uint amountTRXMin,\n        address to,\n        uint deadline\n    ) external virtual override payable ensure(deadline) returns (uint amountToken, uint amountTRX, uint liquidity) {\n        (amountToken, amountTRX) = _addLiquidity(\n            token,\n            WTRX,\n            amountTokenDesired,\n            msg.value,\n            amountTokenMin,\n            amountTRXMin\n        );\n        address pair = TrueswapLibrary.pairFor(factory, token, WTRX);\n        TransferHelper.safeTransferFrom(token, msg.sender, pair, amountToken);\n        IWTRX(WTRX).deposit.value(amountTRX)();\n        assert(IWTRX(WTRX).transfer(pair, amountTRX));\n        liquidity = ITrueswapPair(pair).mint(to);\n        // refund dust trx, if any\n        if (msg.value > amountTRX) TransferHelper.safeTransferTRX(msg.sender, msg.value - amountTRX);\n    }\n\n    // **** REMOVE LIQUIDITY ****\n    function removeLiquidity(\n        address tokenA,\n        address tokenB,\n        uint liquidity,\n        uint amountAMin,\n        uint amountBMin,\n        address to,\n        uint deadline\n    ) public virtual override ensure(deadline) returns (uint amountA, uint amountB) {\n        address pair = TrueswapLibrary.pairFor(factory, tokenA, tokenB);\n        ITrueswapPair(pair).transferFrom(msg.sender, pair, liquidity); // send liquidity to pair\n        (uint amount0, uint amount1) = ITrueswapPair(pair).burn(to);\n        (address token0,) = TrueswapLibrary.sortTokens(tokenA, tokenB);\n        (amountA, amountB) = tokenA == token0 ? (amount0, amount1) : (amount1, amount0);\n        require(amountA >= amountAMin, 'TrueswapRouter: INSUFFICIENT_A_AMOUNT');\n        require(amountB >= amountBMin, 'TrueswapRouter: INSUFFICIENT_B_AMOUNT');\n    }\n    function removeLiquidityTRX(\n        address token,\n        uint liquidity,\n        uint amountTokenMin,\n        uint amountTRXMin,\n        address to,\n        uint deadline\n    ) public virtual override ensure(deadline) returns (uint amountToken, uint amountTRX) {\n        (amountToken, amountTRX) = removeLiquidity(\n            token,\n            WTRX,\n            liquidity,\n            amountTokenMin,\n            amountTRXMin,\n            address(this),\n            deadline\n        );\n        TransferHelper.safeTransfer(token, to, amountToken);\n        IWTRX(WTRX).withdraw(amountTRX);\n        TransferHelper.safeTransferTRX(to, amountTRX);\n    }\n    function removeLiquidityWithPermit(\n        address tokenA,\n        address tokenB,\n        uint liquidity,\n        uint amountAMin,\n        uint amountBMin,\n        address to,\n        uint deadline,\n        bool approveMax, uint8 v, bytes32 r, bytes32 s\n    ) external virtual override returns (uint amountA, uint amountB) {\n        address pair = TrueswapLibrary.pairFor(factory, tokenA, tokenB);\n        uint value = approveMax ? uint(-1) : liquidity;\n        ITrueswapPair(pair).permit(msg.sender, address(this), value, deadline, v, r, s);\n        (amountA, amountB) = removeLiquidity(tokenA, tokenB, liquidity, amountAMin, amountBMin, to, deadline);\n    }\n    function removeLiquidityTRXWithPermit(\n        address token,\n        uint liquidity,\n        uint amountTokenMin,\n        uint amountTRXMin,\n        address to,\n        uint deadline,\n        bool approveMax, uint8 v, bytes32 r, bytes32 s\n    ) external virtual override returns (uint amountToken, uint amountTRX) {\n        address pair = TrueswapLibrary.pairFor(factory, token, WTRX);\n        uint value = approveMax ? uint(-1) : liquidity;\n        ITrueswapPair(pair).permit(msg.sender, address(this), value, deadline, v, r, s);\n        (amountToken, amountTRX) = removeLiquidityTRX(token, liquidity, amountTokenMin, amountTRXMin, to, deadline);\n    }\n\n    // **** REMOVE LIQUIDITY (supporting fee-on-transfer tokens) ****\n    function removeLiquidityTRXSupportingFeeOnTransferTokens(\n        address token,\n        uint liquidity,\n        uint amountTokenMin,\n        uint amountTRXMin,\n        address to,\n        uint deadline\n    ) public virtual override ensure(deadline) returns (uint amountTRX) {\n        (, amountTRX) = removeLiquidity(\n            token,\n            WTRX,\n            liquidity,\n            amountTokenMin,\n            amountTRXMin,\n            address(this),\n            deadline\n        );\n        TransferHelper.safeTransfer(token, to, IERC20(token).balanceOf(address(this)));\n        IWTRX(WTRX).withdraw(amountTRX);\n        TransferHelper.safeTransferTRX(to, amountTRX);\n    }\n    function removeLiquidityTRXWithPermitSupportingFeeOnTransferTokens(\n        address token,\n        uint liquidity,\n        uint amountTokenMin,\n        uint amountTRXMin,\n        address to,\n        uint deadline,\n        bool approveMax, uint8 v, bytes32 r, bytes32 s\n    ) external virtual override returns (uint amountTRX) {\n        address pair = TrueswapLibrary.pairFor(factory, token, WTRX);\n        uint value = approveMax ? uint(-1) : liquidity;\n        ITrueswapPair(pair).permit(msg.sender, address(this), value, deadline, v, r, s);\n        amountTRX = removeLiquidityTRXSupportingFeeOnTransferTokens(\n            token, liquidity, amountTokenMin, amountTRXMin, to, deadline\n        );\n    }\n\n    // **** SWAP ****\n    // requires the initial amount to have already been sent to the first pair\n    function _swap(uint[] memory amounts, address[] memory path, address _to) internal virtual {\n        for (uint i; i < path.length - 1; i++) {\n            (address input, address output) = (path[i], path[i + 1]);\n            (address token0,) = TrueswapLibrary.sortTokens(input, output);\n            uint amountOut = amounts[i + 1];\n            (uint amount0Out, uint amount1Out) = input == token0 ? (uint(0), amountOut) : (amountOut, uint(0));\n            address to = i < path.length - 2 ? TrueswapLibrary.pairFor(factory, output, path[i + 2]) : _to;\n            ITrueswapPair(TrueswapLibrary.pairFor(factory, input, output)).swap(\n                amount0Out, amount1Out, to, new bytes(0)\n            );\n        }\n    }\n    function swapExactTokensForTokens(\n        uint amountIn,\n        uint amountOutMin,\n        address[] calldata path,\n        address to,\n        uint deadline\n    ) external virtual override ensure(deadline) returns (uint[] memory amounts) {\n        amounts = TrueswapLibrary.getAmountsOut(factory, amountIn, path);\n        require(amounts[amounts.length - 1] >= amountOutMin, 'TrueswapRouter: INSUFFICIENT_OUTPUT_AMOUNT');\n        TransferHelper.safeTransferFrom(\n            path[0], msg.sender, TrueswapLibrary.pairFor(factory, path[0], path[1]), amounts[0]\n        );\n        _swap(amounts, path, to);\n    }\n    function swapTokensForExactTokens(\n        uint amountOut,\n        uint amountInMax,\n        address[] calldata path,\n        address to,\n        uint deadline\n    ) external virtual override ensure(deadline) returns (uint[] memory amounts) {\n        amounts = TrueswapLibrary.getAmountsIn(factory, amountOut, path);\n        require(amounts[0] <= amountInMax, 'TrueswapRouter: EXCESSIVE_INPUT_AMOUNT');\n        TransferHelper.safeTransferFrom(\n            path[0], msg.sender, TrueswapLibrary.pairFor(factory, path[0], path[1]), amounts[0]\n        );\n        _swap(amounts, path, to);\n    }\n    function swapExactTRXForTokens(uint amountOutMin, address[] calldata path, address to, uint deadline)\n        external\n        virtual\n        override\n        payable\n        ensure(deadline)\n        returns (uint[] memory amounts)\n    {\n        require(path[0] == WTRX, 'TrueswapRouter: INVALID_PATH');\n        amounts = TrueswapLibrary.getAmountsOut(factory, msg.value, path);\n        require(amounts[amounts.length - 1] >= amountOutMin, 'TrueswapRouter: INSUFFICIENT_OUTPUT_AMOUNT');\n        IWTRX(WTRX).deposit.value(amounts[0])();\n        assert(IWTRX(WTRX).transfer(TrueswapLibrary.pairFor(factory, path[0], path[1]), amounts[0]));\n        _swap(amounts, path, to);\n    }\n    function swapTokensForExactTRX(uint amountOut, uint amountInMax, address[] calldata path, address to, uint deadline)\n        external\n        virtual\n        override\n        ensure(deadline)\n        returns (uint[] memory amounts)\n    {\n        require(path[path.length - 1] == WTRX, 'TrueswapRouter: INVALID_PATH');\n        amounts = TrueswapLibrary.getAmountsIn(factory, amountOut, path);\n        require(amounts[0] <= amountInMax, 'TrueswapRouter: EXCESSIVE_INPUT_AMOUNT');\n        TransferHelper.safeTransferFrom(\n            path[0], msg.sender, TrueswapLibrary.pairFor(factory, path[0], path[1]), amounts[0]\n        );\n        _swap(amounts, path, address(this));\n        IWTRX(WTRX).withdraw(amounts[amounts.length - 1]);\n        TransferHelper.safeTransferTRX(to, amounts[amounts.length - 1]);\n    }\n    function swapExactTokensForTRX(uint amountIn, uint amountOutMin, address[] calldata path, address to, uint deadline)\n        external\n        virtual\n        override\n        ensure(deadline)\n        returns (uint[] memory amounts)\n    {\n        require(path[path.length - 1] == WTRX, 'TrueswapRouter: INVALID_PATH');\n        amounts = TrueswapLibrary.getAmountsOut(factory, amountIn, path);\n        require(amounts[amounts.length - 1] >= amountOutMin, 'TrueswapRouter: INSUFFICIENT_OUTPUT_AMOUNT');\n        TransferHelper.safeTransferFrom(\n            path[0], msg.sender, TrueswapLibrary.pairFor(factory, path[0], path[1]), amounts[0]\n        );\n        _swap(amounts, path, address(this));\n        IWTRX(WTRX).withdraw(amounts[amounts.length - 1]);\n        TransferHelper.safeTransferTRX(to, amounts[amounts.length - 1]);\n    }\n    function swapTRXForExactTokens(uint amountOut, address[] calldata path, address to, uint deadline)\n        external\n        virtual\n        override\n        payable\n        ensure(deadline)\n        returns (uint[] memory amounts)\n    {\n        require(path[0] == WTRX, 'TrueswapRouter: INVALID_PATH');\n        amounts = TrueswapLibrary.getAmountsIn(factory, amountOut, path);\n        require(amounts[0] <= msg.value, 'TrueswapRouter: EXCESSIVE_INPUT_AMOUNT');\n        IWTRX(WTRX).deposit.value(amounts[0])();\n        assert(IWTRX(WTRX).transfer(TrueswapLibrary.pairFor(factory, path[0], path[1]), amounts[0]));\n        _swap(amounts, path, to);\n        // refund dust trx, if any\n        if (msg.value > amounts[0]) TransferHelper.safeTransferTRX(msg.sender, msg.value - amounts[0]);\n    }\n\n    // **** SWAP (supporting fee-on-transfer tokens) ****\n    // requires the initial amount to have already been sent to the first pair\n    function _swapSupportingFeeOnTransferTokens(address[] memory path, address _to) internal virtual {\n        for (uint i; i < path.length - 1; i++) {\n            (address input, address output) = (path[i], path[i + 1]);\n            (address token0,) = TrueswapLibrary.sortTokens(input, output);\n            ITrueswapPair pair = ITrueswapPair(TrueswapLibrary.pairFor(factory, input, output));\n            uint amountInput;\n            uint amountOutput;\n            { // scope to avoid stack too deep errors\n            (uint reserve0, uint reserve1,) = pair.getReserves();\n            (uint reserveInput, uint reserveOutput) = input == token0 ? (reserve0, reserve1) : (reserve1, reserve0);\n            amountInput = IERC20(input).balanceOf(address(pair)).sub(reserveInput);\n            amountOutput = TrueswapLibrary.getAmountOut(amountInput, reserveInput, reserveOutput);\n            }\n            (uint amount0Out, uint amount1Out) = input == token0 ? (uint(0), amountOutput) : (amountOutput, uint(0));\n            address to = i < path.length - 2 ? TrueswapLibrary.pairFor(factory, output, path[i + 2]) : _to;\n            pair.swap(amount0Out, amount1Out, to, new bytes(0));\n        }\n    }\n    function swapExactTokensForTokensSupportingFeeOnTransferTokens(\n        uint amountIn,\n        uint amountOutMin,\n        address[] calldata path,\n        address to,\n        uint deadline\n    ) external virtual override ensure(deadline) {\n        TransferHelper.safeTransferFrom(\n            path[0], msg.sender, TrueswapLibrary.pairFor(factory, path[0], path[1]), amountIn\n        );\n        uint balanceBefore = IERC20(path[path.length - 1]).balanceOf(to);\n        _swapSupportingFeeOnTransferTokens(path, to);\n        require(\n            IERC20(path[path.length - 1]).balanceOf(to).sub(balanceBefore) >= amountOutMin,\n            'TrueswapRouter: INSUFFICIENT_OUTPUT_AMOUNT'\n        );\n    }\n    function swapExactTRXForTokensSupportingFeeOnTransferTokens(\n        uint amountOutMin,\n        address[] calldata path,\n        address to,\n        uint deadline\n    )\n        external\n        virtual\n        override\n        payable\n        ensure(deadline)\n    {\n        require(path[0] == WTRX, 'TrueswapRouter: INVALID_PATH');\n        uint amountIn = msg.value;\n        IWTRX(WTRX).deposit.value(amountIn)();\n        assert(IWTRX(WTRX).transfer(TrueswapLibrary.pairFor(factory, path[0], path[1]), amountIn));\n        uint balanceBefore = IERC20(path[path.length - 1]).balanceOf(to);\n        _swapSupportingFeeOnTransferTokens(path, to);\n        require(\n            IERC20(path[path.length - 1]).balanceOf(to).sub(balanceBefore) >= amountOutMin,\n            'TrueswapRouter: INSUFFICIENT_OUTPUT_AMOUNT'\n        );\n    }\n    function swapExactTokensForTRXSupportingFeeOnTransferTokens(\n        uint amountIn,\n        uint amountOutMin,\n        address[] calldata path,\n        address to,\n        uint deadline\n    )\n        external\n        virtual\n        override\n        ensure(deadline)\n    {\n        require(path[path.length - 1] == WTRX, 'TrueswapRouter: INVALID_PATH');\n        TransferHelper.safeTransferFrom(\n            path[0], msg.sender, TrueswapLibrary.pairFor(factory, path[0], path[1]), amountIn\n        );\n        _swapSupportingFeeOnTransferTokens(path, address(this));\n        uint amountOut = IERC20(WTRX).balanceOf(address(this));\n        require(amountOut >= amountOutMin, 'TrueswapRouter: INSUFFICIENT_OUTPUT_AMOUNT');\n        IWTRX(WTRX).withdraw(amountOut);\n        TransferHelper.safeTransferTRX(to, amountOut);\n    }\n\n    // **** LIBRARY FUNCTIONS ****\n    function quote(uint amountA, uint reserveA, uint reserveB) public pure virtual override returns (uint amountB) {\n        return TrueswapLibrary.quote(amountA, reserveA, reserveB);\n    }\n\n    function getAmountOut(uint amountIn, uint reserveIn, uint reserveOut)\n        public\n        pure\n        virtual\n        override\n        returns (uint amountOut)\n    {\n        return TrueswapLibrary.getAmountOut(amountIn, reserveIn, reserveOut);\n    }\n\n    function getAmountIn(uint amountOut, uint reserveIn, uint reserveOut)\n        public\n        pure\n        virtual\n        override\n        returns (uint amountIn)\n    {\n        return TrueswapLibrary.getAmountIn(amountOut, reserveIn, reserveOut);\n    }\n\n    function getAmountsOut(uint amountIn, address[] memory path)\n        public\n        view\n        virtual\n        override\n        returns (uint[] memory amounts)\n    {\n        return TrueswapLibrary.getAmountsOut(factory, amountIn, path);\n    }\n\n    function getAmountsIn(uint amountOut, address[] memory path)\n        public\n        view\n        virtual\n        override\n        returns (uint[] memory amounts)\n    {\n        return TrueswapLibrary.getAmountsIn(factory, amountOut, path);\n    }\n}\n",
  "sourcePath": "/www/wwwroot/NgocHai-Website/trueswap.ngochai.tech/TrueSwap-v2-periphery/contracts/TrueswapRouter02.sol",
  "compiler": {
    "name": "solc",
    "version": "0.6.0+commit.f8669616.Emscripten.clang"
  },
  "schemaVersion": "2.0.1",
  "updatedAt": "2021-03-11T08:22:16.963Z"
}